----+----1----+----2----+----3----+----4----+----5----+----6----+----7----+----8----+----9----+----0----+----1----+----2----+----3----+----4----+----5----+----6----+----7----+----8----+----9----+----0----+----1----+----2----+----3----+----4----+----5----+----6----+----7----+----8----+----9----+----0----+----1----+----2----+----3----+----4----+----5----+----6----+----7----+----8----+----9----+----0----+----1----+----2----+----3----+----4----+----5----+----6----+----7----+----8----+----9----+----0----+----1----+----2----+----3----+----4----+----5----+----6----+----7----+----8----+----9----+----0----+----1----+----2----+----3----+----4----+----5----+----6----+----7----+----8----+----9----+----0----+----1----+----2----+----3----+----4----+----5----+----6----+----7----+----8----+----9----+----0----+----1----+----
SPTA042420157140        000001      IH              10551300VMI010703041500004222015                                                                                                                                                                                                                                                                                                                         000000000012088                                                                                           I  04302015                     SPA                                                                                     04252015                                                                                                                                                                                                                                                                                                                                                                                 
SPTA042420157140        000001000001IL              10551300VMI010703041500004222015                                                                                                                     2100                                         2100            532622   253210300   000000000003626                                                                                                                                                                                                                                                                                                                                                                                                                                                                                                                                                                                                                                                                                                                              
SPTA042420157140        000001000002IL              10551300VMI010703041500004222015                                                                                                                     2100                                         2100            532622   195030300   000000000008462                                                                                                                                                                                                                                                                                                                                                                                                                                                                                                                                                                                                                                                                                                                              
SPTA042420157140        000002      IH              10551300VMI010702041500004222015                                                                                                                                                                                                                                                                                                                         000000000008182                                                                                           I  04302015                     SPA                                                                                     04252015                                                                                                                                                                                                                                                                                                                                                                                 
SPTA042420157140        000002000001IL              10551300VMI010702041500004222015                                                                                                                     2100                                         2100            532522   253210300   000000000001636                                                                                                                                                                                                                                                                                                                                                                                                                                                                                                                                                                                                                                                                                                                              
SPTA042420157140        000002000002IL              10551300VMI010702041500004222015                                                                                                                     2100                                         2100            532822   195030300   000000000006546                                                                                                                                                                                                                                                                                                                                                                                                                                                                                                                                                                                                                                                                                                                              
SPTA042420157140        000003      IH              10551300VMI012604041500004222015                                                                                                                                                                                                                                                                                                                         000000000024822                                                                                           I  04302015                     SPA                                                                                     04252015                                                                                                                                                                                                                                                                                                                                                                                 
SPTA042420157140        000003000001IL              10551300VMI012604041500004222015                                                                                                                     4000   008625994                             4000            140400   195150000   000000000022340                                                                                                                                                                                                                                                                                                                                                                                                                                                                                                                                                                                                                                                                                                                              
SPTA042420157140        000003000002IL              10551300VMI012604041500004222015                                                                                                                     4000   008625993                             4000            140400   195140000   000000000002234                                                                                                                                                                                                                                                                                                                                                                                                                                                                                                                                                                                                                                                                                                                              
SPTA042420157140        000003000003IL              10551300VMI012604041500004222015                                                                                                                     2100                                         2100            532622   195140300   000000000000248                                                                                                                                                                                                                                                                                                                                                                                                                                                                                                                                                                                                                                                                                                                              
SPTA042420157140        000004      IH              10551300VMI011002041500104212015                                                                                                                                                                                                                                                                                                                         000000000000000                                                                                           I  04302015                     SPA                                                                                     04252015                                                                                                                                                                                                                                                                                                                                                                                 
SPTA042420157140        000004000001IL              10551300VMI011002041500104212015                                                                                                                     2100                                         2100            532822   146060300   000000000000661                                                                                                                                                                                                                                                                                                                                                                                                                                                                                                                                                                                                                                                                                                                              
SPTA042420157140        000005      IH              10551300VMI011003041500104212015                                                                                                                                                                                                                                                                                                                         000000000109425                                                                                           I  04302015                     SPA                                                                                     04252015                                                                                                                                                                                                                                                                                                                                                                                 
SPTA042420157140        000005000001IL              10551300VMI011003041500104212015                                                                                                                     2100                                         2100            532622   146060300   000000000109425                                                                                                                                                                                                                                                                                                                                                                                                                                                                                                                                                                                                                                                                                                                              
SPTA042420157140        000006      IH              10551300VMI011004041500004212015                                                                                                                                                                                                                                                                                                                         000000000000000                                                                                           I  04302015                     SPA                                                                                     04252015                                                                                                                                                                                                                                                                                                                                                                                 
SPTA042420157140        000006000001IL              10551300VMI011004041500004212015                                                                                                                     2100                                         2100            532622   146060300   000000000011144                                                                                                                                                                                                                                                                                                                                                                                                                                                                                                                                                                                                                                                                                                                              
SPTA042420157140        000007      IH              10551300VMI011001041500004212015                                                                                                                                                                                                                                                                                                                         000000000004404                                                                                           I  04302015                     SPA                                                                                     04252015                                                                                                                                                                                                                                                                                                                                                                                 
SPTA042420157140        000007000001IL              10551300VMI011001041500004212015                                                                                                                     2100                                         2100            532822   146060300   000000000004404                                                                                                                                                                                                                                                                                                                                                                                                                                                                                                                                                                                                                                                                                                                              
SPTA042420157140        000008      IH              10551300VMI011002041500004212015                                                                                                                                                                                                                                                                                                                         000000000000000                                                                                           I  04302015                     SPA                                                                                     04252015                                                                                                                                                                                                                                                                                                                                                                                 
SPTA042420157140        000008000001IL              10551300VMI011002041500004212015                                                                                                                     2100                                         2100            532822   146060300   000000000000810                                                                                                                                                                                                                                                                                                                                                                                                                                                                                                                                                                                                                                                                                                                              
SPTA042420157140        000009      IH              10551300VMI011003041500004212015                                                                                                                                                                                                                                                                                                                         000000000000000                                                                                           I  04302015                     SPA                                                                                     04252015                                                                                                                                                                                                                                                                                                                                                                                 
SPTA042420157140        000009000001IL              10551300VMI011003041500004212015                                                                                                                     2100                                         2100            532622   146060300   000000000057245                                                                                                                                                                                                                                                                                                                                                                                                                                                                                                                                                                                                                                                                                                                              
SPTA042420157140                    CG            EV04252015000000000158921                                                                                                                                                                                                                                                                   700004                                                                                                                                                                                                                                                                                                                                                                                                                                                                                                                                                                                                                                                                                    
